{
  "_format": "hh-sol-artifact-1",
  "contractName": "NFT",
  "sourceName": "contracts/NFT.sol",
  "abi": [
    {
      "inputs": [],
      "stateMutability": "nonpayable",
      "type": "constructor"
    },
    {
      "anonymous": false,
      "inputs": [
        {
          "indexed": true,
          "internalType": "address",
          "name": "owner",
          "type": "address"
        },
        {
          "indexed": true,
          "internalType": "address",
          "name": "approved",
          "type": "address"
        },
        {
          "indexed": true,
          "internalType": "uint256",
          "name": "tokenId",
          "type": "uint256"
        }
      ],
      "name": "Approval",
      "type": "event"
    },
    {
      "anonymous": false,
      "inputs": [
        {
          "indexed": true,
          "internalType": "address",
          "name": "owner",
          "type": "address"
        },
        {
          "indexed": true,
          "internalType": "address",
          "name": "operator",
          "type": "address"
        },
        {
          "indexed": false,
          "internalType": "bool",
          "name": "approved",
          "type": "bool"
        }
      ],
      "name": "ApprovalForAll",
      "type": "event"
    },
    {
      "anonymous": false,
      "inputs": [
        {
          "indexed": false,
          "internalType": "uint256",
          "name": "_fromTokenId",
          "type": "uint256"
        },
        {
          "indexed": false,
          "internalType": "uint256",
          "name": "_toTokenId",
          "type": "uint256"
        }
      ],
      "name": "BatchMetadataUpdate",
      "type": "event"
    },
    {
      "anonymous": false,
      "inputs": [
        {
          "indexed": false,
          "internalType": "uint256",
          "name": "_tokenId",
          "type": "uint256"
        }
      ],
      "name": "MetadataUpdate",
      "type": "event"
    },
    {
      "anonymous": false,
      "inputs": [
        {
          "indexed": true,
          "internalType": "address",
          "name": "previousOwner",
          "type": "address"
        },
        {
          "indexed": true,
          "internalType": "address",
          "name": "newOwner",
          "type": "address"
        }
      ],
      "name": "OwnershipTransferred",
      "type": "event"
    },
    {
      "anonymous": false,
      "inputs": [
        {
          "indexed": true,
          "internalType": "address",
          "name": "from",
          "type": "address"
        },
        {
          "indexed": true,
          "internalType": "address",
          "name": "to",
          "type": "address"
        },
        {
          "indexed": true,
          "internalType": "uint256",
          "name": "tokenId",
          "type": "uint256"
        }
      ],
      "name": "Transfer",
      "type": "event"
    },
    {
      "inputs": [
        {
          "internalType": "address",
          "name": "to",
          "type": "address"
        },
        {
          "internalType": "uint256",
          "name": "tokenId",
          "type": "uint256"
        }
      ],
      "name": "approve",
      "outputs": [],
      "stateMutability": "nonpayable",
      "type": "function"
    },
    {
      "inputs": [
        {
          "internalType": "address",
          "name": "owner",
          "type": "address"
        }
      ],
      "name": "balanceOf",
      "outputs": [
        {
          "internalType": "uint256",
          "name": "",
          "type": "uint256"
        }
      ],
      "stateMutability": "view",
      "type": "function"
    },
    {
      "inputs": [
        {
          "internalType": "uint256",
          "name": "tokenId",
          "type": "uint256"
        }
      ],
      "name": "getApproved",
      "outputs": [
        {
          "internalType": "address",
          "name": "",
          "type": "address"
        }
      ],
      "stateMutability": "view",
      "type": "function"
    },
    {
      "inputs": [
        {
          "internalType": "address",
          "name": "owner",
          "type": "address"
        },
        {
          "internalType": "address",
          "name": "operator",
          "type": "address"
        }
      ],
      "name": "isApprovedForAll",
      "outputs": [
        {
          "internalType": "bool",
          "name": "",
          "type": "bool"
        }
      ],
      "stateMutability": "view",
      "type": "function"
    },
    {
      "inputs": [],
      "name": "name",
      "outputs": [
        {
          "internalType": "string",
          "name": "",
          "type": "string"
        }
      ],
      "stateMutability": "view",
      "type": "function"
    },
    {
      "inputs": [],
      "name": "owner",
      "outputs": [
        {
          "internalType": "address",
          "name": "",
          "type": "address"
        }
      ],
      "stateMutability": "view",
      "type": "function"
    },
    {
      "inputs": [
        {
          "internalType": "uint256",
          "name": "tokenId",
          "type": "uint256"
        }
      ],
      "name": "ownerOf",
      "outputs": [
        {
          "internalType": "address",
          "name": "",
          "type": "address"
        }
      ],
      "stateMutability": "view",
      "type": "function"
    },
    {
      "inputs": [],
      "name": "renounceOwnership",
      "outputs": [],
      "stateMutability": "nonpayable",
      "type": "function"
    },
    {
      "inputs": [
        {
          "internalType": "address",
          "name": "to",
          "type": "address"
        },
        {
          "internalType": "string",
          "name": "uri",
          "type": "string"
        }
      ],
      "name": "safeMint",
      "outputs": [],
      "stateMutability": "nonpayable",
      "type": "function"
    },
    {
      "inputs": [
        {
          "internalType": "address",
          "name": "from",
          "type": "address"
        },
        {
          "internalType": "address",
          "name": "to",
          "type": "address"
        },
        {
          "internalType": "uint256",
          "name": "tokenId",
          "type": "uint256"
        }
      ],
      "name": "safeTransferFrom",
      "outputs": [],
      "stateMutability": "nonpayable",
      "type": "function"
    },
    {
      "inputs": [
        {
          "internalType": "address",
          "name": "from",
          "type": "address"
        },
        {
          "internalType": "address",
          "name": "to",
          "type": "address"
        },
        {
          "internalType": "uint256",
          "name": "tokenId",
          "type": "uint256"
        },
        {
          "internalType": "bytes",
          "name": "data",
          "type": "bytes"
        }
      ],
      "name": "safeTransferFrom",
      "outputs": [],
      "stateMutability": "nonpayable",
      "type": "function"
    },
    {
      "inputs": [
        {
          "internalType": "address",
          "name": "operator",
          "type": "address"
        },
        {
          "internalType": "bool",
          "name": "approved",
          "type": "bool"
        }
      ],
      "name": "setApprovalForAll",
      "outputs": [],
      "stateMutability": "nonpayable",
      "type": "function"
    },
    {
      "inputs": [
        {
          "internalType": "bytes4",
          "name": "interfaceId",
          "type": "bytes4"
        }
      ],
      "name": "supportsInterface",
      "outputs": [
        {
          "internalType": "bool",
          "name": "",
          "type": "bool"
        }
      ],
      "stateMutability": "view",
      "type": "function"
    },
    {
      "inputs": [],
      "name": "symbol",
      "outputs": [
        {
          "internalType": "string",
          "name": "",
          "type": "string"
        }
      ],
      "stateMutability": "view",
      "type": "function"
    },
    {
      "inputs": [
        {
          "internalType": "uint256",
          "name": "tokenId",
          "type": "uint256"
        }
      ],
      "name": "tokenURI",
      "outputs": [
        {
          "internalType": "string",
          "name": "",
          "type": "string"
        }
      ],
      "stateMutability": "view",
      "type": "function"
    },
    {
      "inputs": [],
      "name": "totalSupply",
      "outputs": [
        {
          "internalType": "uint256",
          "name": "",
          "type": "uint256"
        }
      ],
      "stateMutability": "view",
      "type": "function"
    },
    {
      "inputs": [
        {
          "internalType": "address",
          "name": "from",
          "type": "address"
        },
        {
          "internalType": "address",
          "name": "to",
          "type": "address"
        },
        {
          "internalType": "uint256",
          "name": "tokenId",
          "type": "uint256"
        }
      ],
      "name": "transferFrom",
      "outputs": [],
      "stateMutability": "nonpayable",
      "type": "function"
    },
    {
      "inputs": [
        {
          "internalType": "address",
          "name": "newOwner",
          "type": "address"
        }
      ],
      "name": "transferOwnership",
      "outputs": [],
      "stateMutability": "nonpayable",
      "type": "function"
    }
  ],
  "bytecode": "0x60806040523480156200001157600080fd5b506040518060400160405280600781526020016615195cdd13919560ca1b815250604051806040016040528060048152602001631513919560e21b81525081600090816200006091906200018d565b5060016200006f82826200018d565b5050506200008c620000866200009260201b60201c565b62000096565b62000259565b3390565b600780546001600160a01b038381166001600160a01b0319831681179093556040519116919082907f8be0079c531659141344cd1fd0a4f28419497f9722a3daafe3b4186f6b6457e090600090a35050565b634e487b7160e01b600052604160045260246000fd5b600181811c908216806200011357607f821691505b6020821081036200013457634e487b7160e01b600052602260045260246000fd5b50919050565b601f8211156200018857600081815260208120601f850160051c81016020861015620001635750805b601f850160051c820191505b8181101562000184578281556001016200016f565b5050505b505050565b81516001600160401b03811115620001a957620001a9620000e8565b620001c181620001ba8454620000fe565b846200013a565b602080601f831160018114620001f95760008415620001e05750858301515b600019600386901b1c1916600185901b17855562000184565b600085815260208120601f198616915b828110156200022a5788860151825594840194600190910190840162000209565b5085821015620002495787850151600019600388901b60f8161c191681555b5050505050600190811b01905550565b61187f80620002696000396000f3fe608060405234801561001057600080fd5b50600436106101165760003560e01c8063715018a6116100a2578063b88d4fde11610071578063b88d4fde1461022a578063c87b56dd1461023d578063d204c45e14610250578063e985e9c514610263578063f2fde38b1461029f57600080fd5b8063715018a6146101f65780638da5cb5b146101fe57806395d89b411461020f578063a22cb4651461021757600080fd5b806318160ddd116100e957806318160ddd1461019857806323b872dd146101aa57806342842e0e146101bd5780636352211e146101d057806370a08231146101e357600080fd5b806301ffc9a71461011b57806306fdde0314610143578063081812fc14610158578063095ea7b314610183575b600080fd5b61012e61012936600461125e565b6102b2565b60405190151581526020015b60405180910390f35b61014b6102c3565b60405161013a91906112cb565b61016b6101663660046112de565b610355565b6040516001600160a01b03909116815260200161013a565b610196610191366004611313565b61037c565b005b6008545b60405190815260200161013a565b6101966101b836600461133d565b610496565b6101966101cb36600461133d565b6104c7565b61016b6101de3660046112de565b6104e2565b61019c6101f1366004611379565b610542565b6101966105c8565b6007546001600160a01b031661016b565b61014b6105dc565b610196610225366004611394565b6105eb565b61019661023836600461145c565b6105fa565b61014b61024b3660046112de565b610632565b61019661025e3660046114d8565b61063d565b61012e61027136600461153a565b6001600160a01b03918216600090815260056020908152604080832093909416825291909152205460ff1690565b6101966102ad366004611379565b610672565b60006102bd826106eb565b92915050565b6060600080546102d29061156d565b80601f01602080910402602001604051908101604052809291908181526020018280546102fe9061156d565b801561034b5780601f106103205761010080835404028352916020019161034b565b820191906000526020600020905b81548152906001019060200180831161032e57829003601f168201915b5050505050905090565b600061036082610710565b506000908152600460205260409020546001600160a01b031690565b6000610387826104e2565b9050806001600160a01b0316836001600160a01b0316036103f95760405162461bcd60e51b815260206004820152602160248201527f4552433732313a20617070726f76616c20746f2063757272656e74206f776e656044820152603960f91b60648201526084015b60405180910390fd5b336001600160a01b038216148061041557506104158133610271565b6104875760405162461bcd60e51b815260206004820152603d60248201527f4552433732313a20617070726f76652063616c6c6572206973206e6f7420746f60448201527f6b656e206f776e6572206f7220617070726f76656420666f7220616c6c00000060648201526084016103f0565b610491838361076f565b505050565b6104a033826107dd565b6104bc5760405162461bcd60e51b81526004016103f0906115a7565b61049183838361085c565b610491838383604051806020016040528060008152506105fa565b6000818152600260205260408120546001600160a01b0316806102bd5760405162461bcd60e51b8152602060048201526018602482015277115490cdcc8c4e881a5b9d985b1a59081d1bdad95b88125160421b60448201526064016103f0565b60006001600160a01b0382166105ac5760405162461bcd60e51b815260206004820152602960248201527f4552433732313a2061646472657373207a65726f206973206e6f7420612076616044820152683634b21037bbb732b960b91b60648201526084016103f0565b506001600160a01b031660009081526003602052604090205490565b6105d06109c0565b6105da6000610a1a565b565b6060600180546102d29061156d565b6105f6338383610a6c565b5050565b61060433836107dd565b6106205760405162461bcd60e51b81526004016103f0906115a7565b61062c84848484610b3a565b50505050565b60606102bd82610b6d565b6106456109c0565b60088054906000610655836115f4565b919050555061066682600854610c75565b6105f660085482610c8f565b61067a6109c0565b6001600160a01b0381166106df5760405162461bcd60e51b815260206004820152602660248201527f4f776e61626c653a206e6577206f776e657220697320746865207a65726f206160448201526564647265737360d01b60648201526084016103f0565b6106e881610a1a565b50565b60006001600160e01b03198216632483248360e11b14806102bd57506102bd82610d5a565b6000818152600260205260409020546001600160a01b03166106e85760405162461bcd60e51b8152602060048201526018602482015277115490cdcc8c4e881a5b9d985b1a59081d1bdad95b88125160421b60448201526064016103f0565b600081815260046020526040902080546001600160a01b0319166001600160a01b03841690811790915581906107a4826104e2565b6001600160a01b03167f8c5be1e5ebec7d5bd14f71427d1e84f3dd0314c0f7b2291e5b200ac8c7c3b92560405160405180910390a45050565b6000806107e9836104e2565b9050806001600160a01b0316846001600160a01b0316148061083057506001600160a01b0380821660009081526005602090815260408083209388168352929052205460ff165b806108545750836001600160a01b031661084984610355565b6001600160a01b0316145b949350505050565b826001600160a01b031661086f826104e2565b6001600160a01b0316146108955760405162461bcd60e51b81526004016103f09061161b565b6001600160a01b0382166108f75760405162461bcd60e51b8152602060048201526024808201527f4552433732313a207472616e7366657220746f20746865207a65726f206164646044820152637265737360e01b60648201526084016103f0565b826001600160a01b031661090a826104e2565b6001600160a01b0316146109305760405162461bcd60e51b81526004016103f09061161b565b600081815260046020908152604080832080546001600160a01b03199081169091556001600160a01b0387811680865260038552838620805460001901905590871680865283862080546001019055868652600290945282852080549092168417909155905184937fddf252ad1be2c89b69c2b068fc378daa952ba7f163c4a11628f55a4df523b3ef91a4505050565b6007546001600160a01b031633146105da5760405162461bcd60e51b815260206004820181905260248201527f4f776e61626c653a2063616c6c6572206973206e6f7420746865206f776e657260448201526064016103f0565b600780546001600160a01b038381166001600160a01b0319831681179093556040519116919082907f8be0079c531659141344cd1fd0a4f28419497f9722a3daafe3b4186f6b6457e090600090a35050565b816001600160a01b0316836001600160a01b031603610acd5760405162461bcd60e51b815260206004820152601960248201527f4552433732313a20617070726f766520746f2063616c6c65720000000000000060448201526064016103f0565b6001600160a01b03838116600081815260056020908152604080832094871680845294825291829020805460ff191686151590811790915591519182527f17307eab39ab6107e8899845ad3d59bd9653f200f220920489ca2b5937696c31910160405180910390a3505050565b610b4584848461085c565b610b5184848484610daa565b61062c5760405162461bcd60e51b81526004016103f090611660565b6060610b7882610710565b60008281526006602052604081208054610b919061156d565b80601f0160208091040260200160405190810160405280929190818152602001828054610bbd9061156d565b8015610c0a5780601f10610bdf57610100808354040283529160200191610c0a565b820191906000526020600020905b815481529060010190602001808311610bed57829003601f168201915b505050505090506000610c2860408051602081019091526000815290565b90508051600003610c3a575092915050565b815115610c6c578082604051602001610c549291906116b2565b60405160208183030381529060405292505050919050565b61085484610eab565b6105f6828260405180602001604052806000815250610f1f565b6000828152600260205260409020546001600160a01b0316610d0a5760405162461bcd60e51b815260206004820152602e60248201527f45524337323155524953746f726167653a2055524920736574206f66206e6f6e60448201526d32bc34b9ba32b73a103a37b5b2b760911b60648201526084016103f0565b6000828152600660205260409020610d22828261172f565b506040518281527ff8e1a15aba9398e019f0b49df1a4fde98ee17ae345cb5f6b5e2c27f5033e8ce79060200160405180910390a15050565b60006001600160e01b031982166380ac58cd60e01b1480610d8b57506001600160e01b03198216635b5e139f60e01b145b806102bd57506301ffc9a760e01b6001600160e01b03198316146102bd565b60006001600160a01b0384163b15610ea057604051630a85bd0160e11b81526001600160a01b0385169063150b7a0290610dee9033908990889088906004016117ef565b6020604051808303816000875af1925050508015610e29575060408051601f3d908101601f19168201909252610e269181019061182c565b60015b610e86573d808015610e57576040519150601f19603f3d011682016040523d82523d6000602084013e610e5c565b606091505b508051600003610e7e5760405162461bcd60e51b81526004016103f090611660565b805181602001fd5b6001600160e01b031916630a85bd0160e11b149050610854565b506001949350505050565b6060610eb682610710565b6000610ecd60408051602081019091526000815290565b90506000815111610eed5760405180602001604052806000815250610f18565b80610ef784610f52565b604051602001610f089291906116b2565b6040516020818303038152906040525b9392505050565b610f298383610fe5565b610f366000848484610daa565b6104915760405162461bcd60e51b81526004016103f090611660565b60606000610f5f83611170565b600101905060008167ffffffffffffffff811115610f7f57610f7f6113d0565b6040519080825280601f01601f191660200182016040528015610fa9576020820181803683370190505b5090508181016020015b600019016f181899199a1a9b1b9c1cb0b131b232b360811b600a86061a8153600a8504945084610fb357509392505050565b6001600160a01b03821661103b5760405162461bcd60e51b815260206004820181905260248201527f4552433732313a206d696e7420746f20746865207a65726f206164647265737360448201526064016103f0565b6000818152600260205260409020546001600160a01b0316156110a05760405162461bcd60e51b815260206004820152601c60248201527f4552433732313a20746f6b656e20616c7265616479206d696e7465640000000060448201526064016103f0565b6000818152600260205260409020546001600160a01b0316156111055760405162461bcd60e51b815260206004820152601c60248201527f4552433732313a20746f6b656e20616c7265616479206d696e7465640000000060448201526064016103f0565b6001600160a01b038216600081815260036020908152604080832080546001019055848352600290915280822080546001600160a01b0319168417905551839291907fddf252ad1be2c89b69c2b068fc378daa952ba7f163c4a11628f55a4df523b3ef908290a45050565b60008072184f03e93ff9f4daa797ed6e38ed64bf6a1f0160401b83106111af5772184f03e93ff9f4daa797ed6e38ed64bf6a1f0160401b830492506040015b6d04ee2d6d415b85acef810000000083106111db576d04ee2d6d415b85acef8100000000830492506020015b662386f26fc1000083106111f957662386f26fc10000830492506010015b6305f5e1008310611211576305f5e100830492506008015b612710831061122557612710830492506004015b60648310611237576064830492506002015b600a83106102bd5760010192915050565b6001600160e01b0319811681146106e857600080fd5b60006020828403121561127057600080fd5b8135610f1881611248565b60005b8381101561129657818101518382015260200161127e565b50506000910152565b600081518084526112b781602086016020860161127b565b601f01601f19169290920160200192915050565b602081526000610f18602083018461129f565b6000602082840312156112f057600080fd5b5035919050565b80356001600160a01b038116811461130e57600080fd5b919050565b6000806040838503121561132657600080fd5b61132f836112f7565b946020939093013593505050565b60008060006060848603121561135257600080fd5b61135b846112f7565b9250611369602085016112f7565b9150604084013590509250925092565b60006020828403121561138b57600080fd5b610f18826112f7565b600080604083850312156113a757600080fd5b6113b0836112f7565b9150602083013580151581146113c557600080fd5b809150509250929050565b634e487b7160e01b600052604160045260246000fd5b600067ffffffffffffffff80841115611401576114016113d0565b604051601f8501601f19908116603f01168101908282118183101715611429576114296113d0565b8160405280935085815286868601111561144257600080fd5b858560208301376000602087830101525050509392505050565b6000806000806080858703121561147257600080fd5b61147b856112f7565b9350611489602086016112f7565b925060408501359150606085013567ffffffffffffffff8111156114ac57600080fd5b8501601f810187136114bd57600080fd5b6114cc878235602084016113e6565b91505092959194509250565b600080604083850312156114eb57600080fd5b6114f4836112f7565b9150602083013567ffffffffffffffff81111561151057600080fd5b8301601f8101851361152157600080fd5b611530858235602084016113e6565b9150509250929050565b6000806040838503121561154d57600080fd5b611556836112f7565b9150611564602084016112f7565b90509250929050565b600181811c9082168061158157607f821691505b6020821081036115a157634e487b7160e01b600052602260045260246000fd5b50919050565b6020808252602d908201527f4552433732313a2063616c6c6572206973206e6f7420746f6b656e206f776e6560408201526c1c881bdc88185c1c1c9bdd9959609a1b606082015260800190565b60006001820161161457634e487b7160e01b600052601160045260246000fd5b5060010190565b60208082526025908201527f4552433732313a207472616e736665722066726f6d20696e636f72726563742060408201526437bbb732b960d91b606082015260800190565b60208082526032908201527f4552433732313a207472616e7366657220746f206e6f6e20455243373231526560408201527131b2b4bb32b91034b6b83632b6b2b73a32b960711b606082015260800190565b600083516116c481846020880161127b565b8351908301906116d881836020880161127b565b01949350505050565b601f82111561049157600081815260208120601f850160051c810160208610156117085750805b601f850160051c820191505b8181101561172757828155600101611714565b505050505050565b815167ffffffffffffffff811115611749576117496113d0565b61175d81611757845461156d565b846116e1565b602080601f831160018114611792576000841561177a5750858301515b600019600386901b1c1916600185901b178555611727565b600085815260208120601f198616915b828110156117c1578886015182559484019460019091019084016117a2565b50858210156117df5787850151600019600388901b60f8161c191681555b5050505050600190811b01905550565b6001600160a01b03858116825284166020820152604081018390526080606082018190526000906118229083018461129f565b9695505050505050565b60006020828403121561183e57600080fd5b8151610f188161124856fea2646970667358221220acd2c8950c9589d08277e237c57620ca7ad6c59ba95757f1732b59c71f45cad564736f6c63430008100033",
  "linkReferences": {},
  "deployedLinkReferences": {}
}