{
  "address": "0x53D59fC561754b0F80175b95aE71bE67134Be185",
  "abi": [
    {
      "inputs": [
        {
          "internalType": "uint256",
          "name": "_size",
          "type": "uint256"
        },
        {
          "internalType": "uint256",
          "name": "_start",
          "type": "uint256"
        },
        {
          "internalType": "uint256",
          "name": "_end",
          "type": "uint256"
        }
      ],
      "name": "InvalidCodeAtRange",
      "type": "error"
    },
    {
      "inputs": [
        {
          "internalType": "address",
          "name": "to",
          "type": "address"
        },
        {
          "internalType": "uint256",
          "name": "value",
          "type": "uint256"
        },
        {
          "internalType": "bytes",
          "name": "data",
          "type": "bytes"
        }
      ],
      "name": "executeCall",
      "outputs": [
        {
          "internalType": "bytes",
          "name": "result",
          "type": "bytes"
        }
      ],
      "stateMutability": "payable",
      "type": "function"
    },
    {
      "inputs": [
        {
          "internalType": "bytes32",
          "name": "hash",
          "type": "bytes32"
        },
        {
          "internalType": "bytes",
          "name": "signature",
          "type": "bytes"
        }
      ],
      "name": "isValidSignature",
      "outputs": [
        {
          "internalType": "bytes4",
          "name": "magicValue",
          "type": "bytes4"
        }
      ],
      "stateMutability": "view",
      "type": "function"
    },
    {
      "inputs": [],
      "name": "nonce",
      "outputs": [
        {
          "internalType": "uint256",
          "name": "",
          "type": "uint256"
        }
      ],
      "stateMutability": "view",
      "type": "function"
    },
    {
      "inputs": [],
      "name": "owner",
      "outputs": [
        {
          "internalType": "address",
          "name": "",
          "type": "address"
        }
      ],
      "stateMutability": "view",
      "type": "function"
    },
    {
      "inputs": [
        {
          "internalType": "bytes4",
          "name": "interfaceId",
          "type": "bytes4"
        }
      ],
      "name": "supportsInterface",
      "outputs": [
        {
          "internalType": "bool",
          "name": "",
          "type": "bool"
        }
      ],
      "stateMutability": "pure",
      "type": "function"
    },
    {
      "inputs": [],
      "name": "token",
      "outputs": [
        {
          "internalType": "uint256",
          "name": "chainId",
          "type": "uint256"
        },
        {
          "internalType": "address",
          "name": "tokenContract",
          "type": "address"
        },
        {
          "internalType": "uint256",
          "name": "tokenId",
          "type": "uint256"
        }
      ],
      "stateMutability": "view",
      "type": "function"
    },
    {
      "stateMutability": "payable",
      "type": "receive"
    }
  ],
  "transactionHash": "0x91598da02a3c00b4f639f850803583f96e416df2882aeca981453c50a35bddc8",
  "args": [],
  "numDeployments": 1,
  "solcInputHash": "2a4a773b7ef4014772b5bfe17c959b3b",
  "bytecode": "0x608060405234801561001057600080fd5b50610a55806100206000396000f3fe6080604052600436106100595760003560e01c806301ffc9a7146100655780631626ba7e1461009a5780638da5cb5b146100d35780639e5d4c4914610100578063affed0e014610120578063fc0c546a1461013e57600080fd5b3661006057005b600080fd5b34801561007157600080fd5b5061008561008036600461070c565b610176565b60405190151581526020015b60405180910390f35b3480156100a657600080fd5b506100ba6100b536600461074c565b6101ad565b6040516001600160e01b03199091168152602001610091565b3480156100df57600080fd5b506100e86101e4565b6040516001600160a01b039091168152602001610091565b61011361010e36600461081f565b6102d4565b60405161009191906108f8565b34801561012c57600080fd5b50600054604051908152602001610091565b34801561014a57600080fd5b506101536103c3565b604080519384526001600160a01b03909216602084015290820152606001610091565b60006001600160e01b031982166301ffc9a760e01b14806101a757506001600160e01b03198216630801407360e31b145b92915050565b6000806101c26101bb6101e4565b85856103ff565b905080156101da5750630b135d3f60e11b90506101a7565b5060009392505050565b600080600080306001600160a01b031663fc0c546a6040518163ffffffff1660e01b8152600401606060405180830381865afa158015610228573d6000803e3d6000fd5b505050506040513d601f19601f8201168201806040525081019061024c919061090b565b925092509250468314610263576000935050505090565b6040516331a9108f60e11b8152600481018290526001600160a01b03831690636352211e90602401602060405180830381865afa1580156102a8573d6000803e3d6000fd5b505050506040513d601f19601f820116820180604052508101906102cc9190610944565b935050505090565b60606102de6101e4565b6001600160a01b0316336001600160a01b0316146103355760405162461bcd60e51b815260206004820152600f60248201526e2737ba103a37b5b2b71037bbb732b960891b60448201526064015b60405180910390fd5b6000856001600160a01b0316858585604051610352929190610961565b60006040518083038185875af1925050503d806000811461038f576040519150601f19603f3d011682016040523d82523d6000602084013e610394565b606091505b5092509050806103a657815160208301fd5b6000805490806103b583610987565b919050555050949350505050565b6000808030803b906103e0906103da6060846109a0565b83610462565b8060200190518101906103f3919061090b565b93509350935050909192565b600080600061040e8585610517565b90925090506000816004811115610427576104276109b3565b1480156104455750856001600160a01b0316826001600160a01b0316145b80610456575061045686868661055c565b925050505b9392505050565b6060833b600081900361048557505060408051602081019091526000815261045b565b808411156104a357505060408051602081019091526000815261045b565b838310156104d55760405163162544fd60e11b815260048101829052602481018590526044810184905260640161032c565b83830384820360008282106104ea57826104ec565b815b60408051603f8301601f19168101909152818152955090508087602087018a3c505050509392505050565b600080825160410361054d5760208301516040840151606085015160001a61054187828585610648565b94509450505050610555565b506000905060025b9250929050565b6000806000856001600160a01b0316631626ba7e60e01b86866040516024016105869291906109c9565b60408051601f198184030181529181526020820180516001600160e01b03166001600160e01b03199094169390931790925290516105c491906109ea565b600060405180830381855afa9150503d80600081146105ff576040519150601f19603f3d011682016040523d82523d6000602084013e610604565b606091505b509150915081801561061857506020815110155b801561045657508051630b135d3f60e11b9061063d9083016020908101908401610a06565b149695505050505050565b6000807f7fffffffffffffffffffffffffffffff5d576e7357a4501ddfe92f46681b20a083111561067f5750600090506003610703565b6040805160008082526020820180845289905260ff881692820192909252606081018690526080810185905260019060a0016020604051602081039080840390855afa1580156106d3573d6000803e3d6000fd5b5050604051601f1901519150506001600160a01b0381166106fc57600060019250925050610703565b9150600090505b94509492505050565b60006020828403121561071e57600080fd5b81356001600160e01b03198116811461045b57600080fd5b634e487b7160e01b600052604160045260246000fd5b6000806040838503121561075f57600080fd5b82359150602083013567ffffffffffffffff8082111561077e57600080fd5b818501915085601f83011261079257600080fd5b8135818111156107a4576107a4610736565b604051601f8201601f19908116603f011681019083821181831017156107cc576107cc610736565b816040528281528860208487010111156107e557600080fd5b8260208601602083013760006020848301015280955050505050509250929050565b6001600160a01b038116811461081c57600080fd5b50565b6000806000806060858703121561083557600080fd5b843561084081610807565b935060208501359250604085013567ffffffffffffffff8082111561086457600080fd5b818701915087601f83011261087857600080fd5b81358181111561088757600080fd5b88602082850101111561089957600080fd5b95989497505060200194505050565b60005b838110156108c35781810151838201526020016108ab565b50506000910152565b600081518084526108e48160208601602086016108a8565b601f01601f19169290920160200192915050565b60208152600061045b60208301846108cc565b60008060006060848603121561092057600080fd5b83519250602084015161093281610807565b80925050604084015190509250925092565b60006020828403121561095657600080fd5b815161045b81610807565b8183823760009101908152919050565b634e487b7160e01b600052601160045260246000fd5b60006001820161099957610999610971565b5060010190565b818103818111156101a7576101a7610971565b634e487b7160e01b600052602160045260246000fd5b8281526040602082015260006109e260408301846108cc565b949350505050565b600082516109fc8184602087016108a8565b9190910192915050565b600060208284031215610a1857600080fd5b505191905056fea26469706673582212203cffcc00bc6484ecd682dae5176bc2d4713ba637b28634e809ce03b43054db0a64736f6c63430008100033",
  "devdoc": {
    "kind": "dev",
    "methods": {
      "executeCall(address,uint256,bytes)": {
        "details": "Executes `call` on address `to`, with value `value` and calldata `data`. MUST revert and bubble up errors if call fails. By default, token bound accounts MUST allow the owner of the ERC-721 token which owns the account to execute arbitrary calls using `executeCall`. Token bound accounts MAY implement additional authorization mechanisms which limit the ability of the ERC-721 token holder to execute calls. Token bound accounts MAY implement additional execution functions which grant execution permissions to other non-owner accounts.",
        "returns": {
          "result": "The result of the call"
        }
      },
      "isValidSignature(bytes32,bytes)": {
        "details": "Should return whether the signature provided is valid for the provided data",
        "params": {
          "hash": "Hash of the data to be signed",
          "signature": "Signature byte array associated with _data"
        }
      },
      "nonce()": {
        "details": "Returns a nonce value that is updated on every successful transaction",
        "returns": {
          "_0": "The current account nonce"
        }
      },
      "owner()": {
        "details": "Returns the owner of the ERC-721 token which controls the account if the token exists. This is value is obtained by calling `ownerOf` on the ERC-721 contract.",
        "returns": {
          "_0": "Address of the owner of the ERC-721 token which owns the account"
        }
      },
      "supportsInterface(bytes4)": {
        "details": "Returns true if this contract implements the interface defined by `interfaceId`. See the corresponding https://eips.ethereum.org/EIPS/eip-165#how-interfaces-are-identified[EIP section] to learn more about how these ids are created. This function call must use less than 30 000 gas."
      },
      "token()": {
        "details": "Returns identifier of the ERC-721 token which owns the account The return value of this function MUST be constant - it MUST NOT change over time.",
        "returns": {
          "chainId": "The EIP-155 ID of the chain the ERC-721 token exists on",
          "tokenContract": "The contract address of the ERC-721 token",
          "tokenId": "The ID of the ERC-721 token"
        }
      }
    },
    "version": 1
  },
  "userdoc": {
    "kind": "user",
    "methods": {},
    "version": 1
  },
  "storageLayout": {
    "storage": [
      {
        "astId": 3548,
        "contract": "contracts/ERC6551Account.sol:ERC6551Account",
        "label": "_nonce",
        "offset": 0,
        "slot": "0",
        "type": "t_uint256"
      }
    ],
    "types": {
      "t_uint256": {
        "encoding": "inplace",
        "label": "uint256",
        "numberOfBytes": "32"
      }
    }
  }
}